:020000040800F2
:10000000000005202DC00008F1B80008F3B8000872
:10001000F5B80008F7B80008F9B8000800000000BB
:10002000000000000000000000000000FBB8000815
:10003000FDB8000800000000FFB8000801B9000882
:100040007DC0000809B900087DC000087DC0000817
:1000500011B9000819B900087DC000087DC000086A
:100060007DC000087DC000087DC000087DC000087C
:100070007DC000087DC000087DC000081DB90008D3
:100080007DC000087DC000087DC000087DC000085C
:100090007DC000087DC000087DC000087DC000084C
:1000A0007DC000087DC000087DC000087DC000083C
:1000B0007DC000087DC000087DC000082DB9000883
:1000C0003DB900087DC000087DC000087DC0000863
:1000D0004DB900085DB900087DC000087DC000086A
:1000E0007DC000087DC000087DC000087DC00008FC
:1000F0007DC000087DC000087DC000087DC00008EC
:100100006DB900087DC000087DC000087DC00008F2
:100110007DC000087DC000087DC000087DC00008CB
:100120007DC000087DC000087DC000087DC00008BB
:100130007DB900087DC000087DC000087DC00008B2
:100140007DC000087DC000087DC000088DB9000892
:100150007DC000087DC000087DC000087DC000088B
:100160007DC000087DC000087DC000087DC000087B
:100170007DC000087DC000087DC0000800000000B0
:100180007DC000089DB900087DC000087DC0000842
:100190007DC000087DC000087DC00008A1B900082E
:1001A000B1B90008C1B90008D1B900087DC0000884
:1001B000E1B900087DC000087DC000087DC00008CE
:0801C0007DC000087DC00008AD
:1002000053B94AB9002908BF00281CBF4FF0FF317D
:100210004FF0FF3000F00CB8ADF1080C6DE904CEE2
:100220000BF02EFFDDF804E0DDE9022304B0704797
:10023000704700BF00000000000000000000000048
:1002400001F0FF01102A2BDB10F0070F08D010F887
:10025000013B013A8B422DD010F0070F42B3F6D18B
:10026000F0B441EA012141EA014122F007047FF0A4
:1002700000070023F0E80256083C85EA010586EAFB
:10028000010685FA47F5A3FA87F586FA47F6A5FA37
:1002900087F68EB9EED1F0BC01F0FF0102F0070243
:1002A00032B110F8013B013A83EA010313B1F8D1EE
:1002B0000020704701387047002D06BF35460338CF
:1002C000073815F0010F07D1013015F4807F02BF08
:1002D000013015F4C03F0130F0BC0138704700BF59
:1002E000844641EA000313F003036DD1403A41D341
:1002F00051F8043B40F8043B51F8043B40F8043B00
:1003000051F8043B40F8043B51F8043B40F8043BEF
:1003100051F8043B40F8043B51F8043B40F8043BDF
:1003200051F8043B40F8043B51F8043B40F8043BCF
:1003300051F8043B40F8043B51F8043B40F8043BBF
:1003400051F8043B40F8043B51F8043B40F8043BAF
:1003500051F8043B40F8043B51F8043B40F8043B9F
:1003600051F8043B40F8043B51F8043B40F8043B8F
:10037000403ABDD2303211D351F8043B40F8043B2F
:1003800051F8043B40F8043B51F8043B40F8043B6F
:1003900051F8043B40F8043B103AEDD20C3205D33F
:1003A00051F8043B40F8043B043AF9D2043208D037
:1003B000D2071CBF11F8013B00F8013B01D30B88A9
:1003C00003806046704700BF082A13D38B078DD087
:1003D00010F003038AD0C3F10403D21ADB071CBF59
:1003E00011F8013B00F8013B80D331F8023B20F8C3
:1003F000023B7BE7043AD9D3013A11F8013B00F8FC
:10040000013BF9D20B7803704B7843708B78837083
:10041000604670470000000000000000000000007F
:1004200000000000000000000000000000000000CC
:1004300000000000000000000000000000000000BC
:1004400030B490F800F020F007016FF0000C10F0CD
:10045000070491F820F040F048804FF000046FF05E
:100460000700D1E9002391F840F000F1080082FA7A
:100470004CF2A4FA8CF283FA4CF3A2FA8CF34BBB45
:10048000D1E9022382FA4CF200F10800A4FA8CF2BE
:1004900083FA4CF3A2FA8CF3E3B9D1E9042382FA8C
:1004A0004CF200F10800A4FA8CF283FA4CF3A2FAA1
:1004B0008CF37BB9D1E9062301F1200182FA4CF2D9
:1004C00000F10800A4FA8CF283FA4CF3A2FA8CF340
:1004D000002BC6D0002A04BF04301A4612BAB2FA62
:1004E00082F200EBD20030BC7047D1E9002304F067
:1004F0000305C4F100004FEAC50514F0040F91F89C
:1005000040F00CFA05F562EA05021CBF63EA050338
:1005100062464FF00004AAE781F0004102E000BF0C
:1005200083F0004330B54FEA41044FEA430594EAB3
:10053000050F08BF90EA020F1FBF54EA000C55EAEE
:10054000020C7FEA645C7FEA655C00F0E2804FEABF
:100550005454D4EB5555B8BF6D420CDD2C4480EAA1
:10056000020281EA030382EA000083EA010180EAD1
:10057000020281EA0303362D88BF30BD11F0004F1F
:100580004FEA01314FF4801C4CEA113102D0404255
:1005900061EB410113F0004F4FEA03334CEA133390
:1005A00002D0524263EB430394EA050F00F0A780A8
:1005B000A4F10104D5F1200E0DDB02FA0EFC22FAA3
:1005C00005F2801841F1000103FA0EF2801843FA97
:1005D00005F359410EE0A5F120050EF1200E012A88
:1005E00003FA0EFC28BF4CF0020C43FA05F3C018C6
:1005F00051EBE37101F0004507D54FF0000EDCF13F
:10060000000C7EEB00006EEB0101B1F5801F1BD3E7
:10061000B1F5001F0CD349085FEA30004FEA3C0CEB
:1006200004F101044FEA445212F5800F80F09A80E1
:10063000BCF1004F08BF5FEA500C50F1000041EBE5
:10064000045141EA050130BD5FEA4C0C404141EBE9
:100650000101013C28BFB1F5801FE9D291F0000FE4
:1006600004BF01460020B1FA81F308BF2033A3F193
:100670000B03B3F120020CDA0C3208DD02F1140C8A
:10068000C2F10C0201FA0CF021FA02F10CE002F1C5
:100690001402D8BFC2F1200C01FA02F120FA0CFCBE
:1006A000DCBF41EA0C019040E41AA2BF01EB045107
:1006B000294330BD6FEA04041F3C1CDA0C340EDC05
:1006C00004F11404C4F1200220FA04F001FA02F348
:1006D00040EA030021FA04F345EA030130BDC4F106
:1006E0000C04C4F1200220FA02F001FA04F340EAFB
:1006F0000300294630BD21FA04F0294630BD94F0AC
:10070000000F83F4801306BF81F480110134013D92
:100710004EE77FEA645C18BF7FEA655C29D094EA03
:10072000050F08BF90EA020F05D054EA000C04BF81
:100730001946104630BD91EA030F1EBF002100206C
:1007400030BD5FEA545C05D14000494128BF41F00B
:10075000004130BD14F580043CBF01F5801130BD6F
:1007600001F0004545F0FE4141F470014FF00000FA
:1007700030BD7FEA645C1ABF194610467FEA655CAB
:100780001CBF0B46024650EA013406BF52EA03354D
:1007900091EA030F41F4002130BD00BF90F0000F3B
:1007A00004BF0021704730B54FF4806404F1320477
:1007B0004FF000054FF0000150E700BF90F0000F30
:1007C00004BF0021704730B54FF4806404F1320457
:1007D00010F0004548BF40424FF000013EE700BF27
:1007E00042004FEAE2014FEA31014FEA02701FBFB7
:1007F00012F07F4393F07F4F81F06051704732F0E9
:100800007F4208BF704793F07F4F04BF41F400213F
:10081000704730B54FF4607401F0004521F000419D
:100820001CE700BF50EA010208BF704730B54FF027
:1008300000050AE050EA010208BF704730B511F028
:10084000004502D5404261EB41014FF4806404F160
:1008500032045FEA915C3FF4D8AE4FF003025FEAE6
:10086000DC0C18BF03325FEADC0C18BF033202EB6A
:10087000DC02C2F1200300FA03FC20FA02F001FAC4
:1008800003FE40EA0E0021FA02F11444BDE600BF67
:1008900070B54FF0FF0C4CF4E06C1CEA11541DBF16
:1008A0001CEA135594EA0C0F95EA0C0F00F0DEF8E1
:1008B0002C4481EA030621EA4C5123EA4C5350EAC6
:1008C000013518BF52EA033541F4801143F4801317
:1008D00038D0A0FB02CE4FF00005E1FB02E506F0A8
:1008E0000042E0FB03E54FF00006E1FB03569CF0FD
:1008F000000F18BF4EF0010EA4F1FF04B6F5007F03
:1009000064F5407404D25FEA4E0E6D4146EB060674
:1009100042EAC62141EA55514FEAC52040EA5E50FD
:100920004FEACE2EB4F1FD0C88BFBCF5E06F1ED8A7
:10093000BEF1004F08BF5FEA500E50F1000041EBDE
:10094000045170BD06F0004646EA010140EA02008B
:1009500081EA0301B4EB5C04C2BFD4EB0C0541EAAD
:10096000045170BD41F480114FF0000E013C00F3C2
:10097000AB8014F1360FDEBF002001F0004170BDE6
:10098000C4F10004203C35DA0C341BDC04F11404FF
:10099000C4F1200500FA05F320FA04F001FA05F28B
:1009A00040EA020001F0004221F0004110EBD37058
:1009B00021FA04F642EB06015EEA430E08BF20EA84
:1009C000D37070BDC4F10C04C4F1200500FA04F327
:1009D00020FA05F001FA04F240EA020001F00041B9
:1009E00010EBD37041F100015EEA430E08BF20EA2C
:1009F000D37070BDC4F1200500FA05F24EEA020E74
:100A000020FA04F301FA05F243EA020321FA04F0A2
:100A100001F0004121FA04F220EA020000EBD37059
:100A20005EEA430E08BF20EAD37070BD94F0000F59
:100A30000FD101F00046400041EB010111F4801F8D
:100A400008BF013CF7D041EA060195F0000F18BF3E
:100A5000704703F00046520043EB030313F4801F7A
:100A600008BF013DF7D043EA0603704794EA0C0F34
:100A70000CEA135518BF95EA0C0F0CD050EA41064A
:100A800018BF52EA4306D1D181EA030101F00041C7
:100A90004FF0000070BD50EA410606BF10461946EF
:100AA00052EA430619D094EA0C0F02D150EA0136FB
:100AB00013D195EA0C0F05D152EA03361CBF10463C
:100AC00019460AD181EA030101F0004141F0FE41DB
:100AD00041F470014FF0000070BD41F0FE4141F45F
:100AE000780170BD70B54FF0FF0C4CF4E06C1CEA5F
:100AF00011541DBF1CEA135594EA0C0F95EA0C0F14
:100B000000F0A7F8A4EB050481EA030E52EA0335CE
:100B10004FEA013100F088804FEA03334FF08055EF
:100B200045EA131343EA12634FEA022245EA11151C
:100B300045EA10654FEA00260EF000419D4208BFCD
:100B4000964244F1FD0404F5407402D25B084FEA7A
:100B50003202B61A65EB03055B084FEA32024FF426
:100B600080104FF4002CB6EB020E75EB030E22BF83
:100B7000B61A754640EA0C005B084FEA3202B6EB43
:100B8000020E75EB030E22BFB61A754640EA5C00F2
:100B90005B084FEA3202B6EB020E75EB030E22BF82
:100BA000B61A754640EA9C005B084FEA3202B6EB83
:100BB000020E75EB030E22BFB61A754640EADC0042
:100BC00055EA060E18D04FEA051545EA16754FEAA4
:100BD00006164FEAC30343EA52734FEAC2025FEAC2
:100BE0001C1CC0D111F4801F0BD141EA00014FF051
:100BF00000004FF0004CB6E711F4801F04BF014322
:100C00000020B4F1FD0C88BFBCF5E06F3FF6AFAE3D
:100C1000B5EB030C04BFB6EB020C5FEA500C50F1CD
:100C2000000041EB045170BD0EF0004E4EEA113150
:100C300014EB5C04C2BFD4EB0C0541EA045170BD57
:100C400041F480114FF0000E013C90E645EA060E9B
:100C50008DE60CEA135594EA0C0F08BF95EA0C0FC9
:100C60003FF43BAF94EA0C0F0AD150EA01347FF411
:100C700034AF95EA0C0F7FF425AF104619462CE7E8
:100C800095EA0C0F06D152EA03353FF4FDAE10464B
:100C9000194622E750EA410618BF52EA43067FF49C
:100CA000C5AE50EA41047FF40DAF52EA43057FF42C
:100CB000EBAE12E74FF0FF3C06E000BF4FF0010C37
:100CC00002E000BF4FF0010C4DF804CD4FEA410C9B
:100CD0007FEA6C5C4FEA430C18BF7FEA6C5C1BD068
:100CE00001B050EA410C0CBF52EA430C91EA030FE9
:100CF00002BF90EA020F0020704710F1000F91EA46
:100D0000030F58BF994208BF90422CBFD8176FEA13
:100D1000E37040F0010070474FEA410C7FEA6C5CE1
:100D200002D150EA013C07D14FEA430C7FEA6C5CE8
:100D3000D6D152EA033CD3D05DF8040B704700BF14
:100D40008446104662468C461946634600E000BF62
:100D500001B5FFF7B7FF002848BF10F1000F01BD34
:100D60004DF808EDFFF7F4FF0CBF012000205DF8FF
:100D700008FB00BF4DF808EDFFF7EAFF34BF012084
:100D800000205DF808FB00BF4DF808EDFFF7E0FF1D
:100D900094BF012000205DF808FB00BF4DF808ED6E
:100DA000FFF7CEFF94BF012000205DF808FB00BFD5
:100DB0004DF808EDFFF7C4FF34BF012000205DF8B7
:100DC00008FB00BF4FEA410C7FEA6C5C02D150EA9D
:100DD000013C0AD14FEA430C7FEA6C5C02D152EA33
:100DE000033C02D14FF0000070474FF00100704704
:100DF0004FEA410212F5001215D211D56FF4787343
:100E0000B3EB625212D94FEAC12343F0004343EAE5
:100E1000505311F0004F23FA02F018BF40427047C0
:100E20004FF00000704750EA013005D111F000404A
:100E300008BF6FF0004070474FF00000704700BFE0
:100E40000348044B834202D0034B03B11847704759
:100E5000C4090020C4090020000000000548064B1A
:100E60001B1AD90F01EBA301491002D0034B03B1A8
:100E700018477047C4090020C40900200000000082
:100E800010B5064C237843B9FFF7DAFF044B13B1D2
:100E90000448AFF300800123237010BDC409002073
:100EA000000000008427010808B5054B1BB1054967
:100EB0000548AFF30080BDE80840FFF7CFBF00BF93
:100EC00000000000C80900208427010870470020A6
:100ED00070477047014B1878704700BFE409002045
:100EE00008B5FFF7F7FF00B108BD00F087FA024B25
:100EF00001221A70F8E700BFE409002008B5C820F5
:100F000000F0AEFAFFF7ECFF08BD70B582B0064600
:100F100000248DF80740FFF7E3FF254601E0013488
:100F2000E4B285F00103022C0DD863B1A821F0B220
:100F300000F080FA8DF807009DF80730DBB2512BE6
:100F4000EDD10125EBE79DF8070002B070BD000070
:100F500000B583B000238DF807300221C0B200F045
:100F600069FA8DF807009DF8073003F00F038DF83C
:100F700007309DF80730DBB2052B02D900238DF82E
:100F800007309DF80720044B5A7000229A709DF894
:100F9000070003B05DF804FBE40900202DE9F047E9
:100FA00082B0154600238DF807304F4A9378527867
:100FB000934280F096800F46092B06D8DFE803F0B5
:100FC000530B131B232B333B434B4FF00008C146FD
:100FD000C24641464EE04FF00B084FF00C094FF06F
:100FE000090A0A2146E04FF011084FF012094FF0AC
:100FF0000F0A10213EE04FF017084FF018094FF08C
:10100000150A162136E04FF01D084FF01E094FF06B
:101010001B0A1C212EE04FF023084FF024094FF04B
:10102000210A222126E04FF029084FF02A094FF02B
:10103000270A28211EE04FF02F084FF030094FF00B
:101040002D0A2E2116E04FF035084FF036094FF0EB
:10105000330A34210EE04FF03B084FF03C094FF0CB
:10106000390A3A2106E04FF005084FF006094FF023
:10107000030A0421C4B2204600F0DCF98DF8070011
:101080009DF80730194E33805146204600F0D2F9C2
:101090008DF807009DF807301B0203F47063328857
:1010A00013439BB233803B804946204600F0C2F98F
:1010B0008DF807009DF8073033804146204600F048
:1010C000B9F98DF807009DF807301B0203F470632F
:1010D000328813439BB233802B80034A93780133C9
:1010E000937002B0BDE8F087E4090020E009002019
:1010F00008B50122A421C0B200F088F908BD08B5E6
:101100000022A421C0B200F081F908BD08B5FFF7A4
:10111000F6FF08BD10B582B00C4600238DF80730ED
:101120000121C0B200F086F98DF807009DF8073064
:10113000236002B010BD00002DE9F04182B01D46D1
:1011400000238DF80730334B5B788B425ED916460F
:10115000092906D8DFE801F036090E13181D2227E9
:101160002C310027B846394630E00E274FF00D08E5
:1011700009212BE014274FF013080F2126E01A272E
:101180004FF01908152121E020274FF01F081B21DF
:101190001CE026274FF02508212117E02C274FF0CF
:1011A0002B08272112E032274FF031082D210DE0C6
:1011B00038274FF03708332108E03E274FF03D082D
:1011C000392103E008274FF007080321C4B2204665
:1011D00000F030F98DF807009DF807309B09089A58
:1011E00013604146204600F025F98DF807009DF870
:1011F000073033603946204600F01CF98DF80700AF
:101200009DF807301B0903F004032B6002B0BDE812
:10121000F08100BFE409002070B58AB0444B8342DE
:1012200043D0444C236B43F002032363236B03F04E
:1012300002030393039B4FF48073059312230693D9
:101240000025079502230893042309933A4E05A924
:10125000304601F055FE4FF40073059305A9304662
:1012600001F04EFE236C43F400132364236C03F45B
:1012700000130493049B236A43F400132362236A3C
:1012800023F4001323622A460F211F2001F050F897
:101290001F2001F05DF82A460F21202001F048F8B8
:1012A000202001F055F80AB070BD224C236B43F0AA
:1012B00080032363236B03F080030193019B80234E
:1012C0000593122306930025079502230893042310
:1012D00009931A4E05A9304601F012FE4FF48073AF
:1012E000059305A9304601F00BFE236C43F400037F
:1012F0002364236C03F400030293029B236A43F4E8
:1013000000032362236A23F4000323622A460F2189
:10131000482001F00DF8482001F01AF82A460F2164
:10132000492001F005F8492001F012F8BBE700BFA1
:10133000E80900200038024000040240001C02407E
:1013400010B5044602F0F7FFA0B90C4B9C4212D036
:101350000B4B23600B4B63600023A3600122E26010
:1013600023616361E36123622046FFF755FF204656
:1013700002F080F910BD044B2360EBE7E809002080
:101380000054004032279140005C004010B50446F4
:1013900002F0D4F92046FFF7D3FF10BD70B584B03A
:1013A00004460D464FF47A760296BDF82460019605
:1013B000089E009602F0AEFA064610B9304604B018
:1013C00070BD29462046FFF7E1FFF7E770B584B00E
:1013D00004460D464FF47A760296BDF824600196D5
:1013E000089E009602F06CFB064610B9304604B029
:1013F00070BD29462046FFF7C9FFF7E708B5024848
:10140000FFF79EFF08BD00BFE809002000B585B0CA
:101410008DF80F20012301930DF10F0200920A466F
:1014200001460348FFF7BAFF05B05DF804FB00BFB3
:10143000E809002000B585B00A4600238DF80F307A
:10144000012301930DF10F01009101460348FFF7BD
:10145000BDFF9DF80F0005B05DF804FBE809002012
:1014600008B500F0FBFE08BD2DE9F04182B005464D
:101470000E46174698461A4B4FF440325A60194BA5
:101480001B68194C342202FB034CDCF84830022B59
:101490000DD0134B00229A601148089BC360134B78
:1014A000036001F05FFA30B102B0BDE8F0810C4B8F
:1014B00002229A60F0E72946094801F0D9FB00288A
:1014C000F2D1CDF800803B4632460999044801F03C
:1014D00074FA0028E8D10A21014801F08AFAE3E70A
:1014E000DC0A0020D80A00201C0B002000B00240BB
:1014F000034B1A68034B342101FB0233186E70470B
:10150000D80A00201C0B0020034B1A68034B34211F
:1015100001FB0233586E7047D80A00201C0B0020D4
:1015200070B58EB004460E4600250195FFF7E0FF2A
:1015300002900395FFF7E8FF049005950A96FF23B4
:10154000069307958DF834508DF835508DF8365048
:101550004FF4C063089307230993FFF7C9FF0B906B
:10156000FFF7D2FF0C90224601A90A4803F03AFA8D
:10157000094A04EB440302EB83034FF0FF31596047
:101580000649996004EB44044FF07F4342F824304D
:101590000EB070BD1C0B0020C00A0020000000200F
:1015A000014B1860704700BFD80A0020034B1B682E
:1015B00003EB4303024A42F823007047D80A002095
:1015C000C00A0020044B1B6803EB4303034A02EBF1
:1015D00083039860704700BFD80A0020C00A00202B
:1015E000F0B583B005460B4B1E680B4B342202FB53
:1015F0000633DF6DFFF77CFF0446FFF785FF0346E8
:10160000019500220092224639463046FFF72CFF12
:1016100003B0F0BDD80A00201C0B00202DE9F043D8
:1016200083B00546884616461F461E4C226802EBCC
:1016300042021D4B53F82200FFF7B8FF24681B4BF2
:10164000342202FB04339B6C022B1ED0174B342236
:1016500002FB0433D3F85C90FFF74AFF00FB08500D
:1016600009EB8009FFF744FF04EB44020E4B53F8EB
:1016700022300193801B00903B463246494620466B
:10168000FFF7F2FE03B0BDE8F083084B02FB043322
:10169000D3F85C90FFF72CFF00FB085009EB4009E2
:1016A000E0E700BFD80A0020C00A00201C0B002081
:1016B00008B5094B1A68936943F00103936101224D
:1016C0004FF48051054801F0C5FD0122082104486E
:1016D00001F0C0FD08BD00BF1C0B0020002002402F
:1016E00000280240F0B58FB04A4B5A6C42F080623D
:1016F0005A645A6C02F080620092009A1A6B42F4AB
:1017000000021A631A6B02F400020192019A1A6B2A
:1017100042F010021A631A6B02F010020292029A4F
:101720001A6B42F040021A631A6B02F040020392F5
:10173000039A1A6B42F480721A631A6B02F4807275
:101740000492049A1A6B42F400721A631A6B02F440
:1017500000720592059A1A6B42F480621A631A6B42
:1017600002F480620692069A1A6B42F480721A633F
:101770001A6B02F480720792079A1A6B42F4806225
:101780001A631B6B03F480630893089B102309936F
:1017900002240A9400230B930C940E250D9509A99D
:1017A0001D4801F0ADFB4FF4805709970A940923B7
:1017B0000D9309A9194801F0A3FB4FF4464309937F
:1017C0000A940D95164E09A9304601F099FB4EF684
:1017D000FF7309930A940D9509A9124801F090FB33
:1017E000F72309930A940D950F4C09A9204601F09F
:1017F00087FB099701250A9509A9304601F080FB6E
:10180000082309930A9509A9204601F079FB0FB036
:10181000F0BD00BF00380240001002400018024036
:1018200000200240002402400028024008B506487B
:1018300008230360C02343610523C3614FF4803351
:10184000C36205F095F808BD3C0A002010B5254C90
:10185000282363610923A3613523E3610B232362FA
:1018600040F21B13A36240F21523636240F21D1382
:10187000236340F23523E36200212046FFF7D6FFC1
:101880004FF4F07323664FF488736366002384F883
:10189000343084F8353084F836306360A360E36018
:1018A0002361114B2360204603F0D0F8A0B10D480E
:1018B00002F0ACFF01224FF480510C4801F0CAFC49
:1018C000012208210A4801F0C5FC00F0EDFA0948A0
:1018D000FFF778FE002010BD00212046FFF702FF31
:1018E000E5E700BF1C0B002000680140002002401B
:1018F000002802400000002010B594B00B464FF4C1
:1019000080720C920522069200220D920E924FF0E8
:1019100080710F910B9211921292139200920124F6
:10192000019404920394102202924FF480020592D3
:101930006A4606A904F0C4F808B914B010BD2046E0
:10194000FBE710B58EB004464FF480730693662310
:101950000093002307930893099305930B930C932B
:101960000D9341F28832694604F05BF810B1012012
:101970000EB010BD9923009341F28832694620468B
:1019800004F04FF808B10120F2E741F28831204617
:10199000FFF7B2FF0028EBD00120E9E710B594B0C3
:1019A00004464FF480730C930623069300230D9393
:1019B0000E930F930B9311931293139341F288326A
:1019C00006A904F02EF810B1012014B010BD0223B6
:1019D00000930193002304930123039310230293A4
:1019E0004FF480030593052306934FF080730F9304
:1019F00041F288336A4606A9204604F061F80028BF
:101A0000E3D00120E1E710B590B004464FF48073B5
:101A1000089385230293002309930A934FF0807261
:101A20000B92079301220C920D930E930F9341F2A8
:101A3000883202A903F0F5FF10B1012010B010BDEB
:101A400041F288320DF10701204604F0C3F908B1D4
:101A50000120F3E72046FFF7A1FF08B10120EDE7E1
:101A6000812302939DF80730F02292FAA2F2B2FA93
:101A700082F20A2101FA02F203F00F0313438DF8F8
:101A8000073041F2883202A9204603F0CAFF08B1AC
:101A90000120D3E741F288320DF10701204604F01E
:101AA0002CF90028CAD00120C8E7000000B591B089
:101AB0004FF480730893EB2302934FF44063099330
:101AC0004FF40053059300230A934FF040720B929A
:101AD0000A2207920D930E930F93019300936A4687
:101AE00002A9044804F047F810B911B05DF804FBEE
:101AF0000120FAE7C40B0020F0B58DB0454B9A6B7E
:101B000042F002029A639A6B02F002020092009A7B
:101B10009A6942F002029A619A6922F002029A617D
:101B20001A6B42F002021A631A6B02F0020201926F
:101B3000019A1A6B42F002021A631A6B02F0020257
:101B40000292029A1A6B42F008021A631A6B02F0B0
:101B500008020392039A1A6B42F008021A631A6B86
:101B600002F008020492049A1A6B42F010021A63FF
:101B70001A6B02F010020592059A1A6B42F00802E5
:101B80001A631B6B03F008030693069B402307931D
:101B9000022308930123099303230A930A230B9337
:101BA0001D4D07A9284601F0ABF904270797002629
:101BB000099609240B9407A9284601F0A1F94FF4CE
:101BC000006307930B9405F5006507A9284601F00B
:101BD00097F94FF4805307930B9407A9284601F017
:101BE0008FF907970B9407A90C4801F089F94FF476
:101BF000005307930B9407A9284601F081F9324658
:101C00000F215C2000F094FB5C2000F0A1FB0DB0E4
:101C1000F0BD00BF00380240000402400010024046
:101C200010B51A481A4B036003F0E8FE08B1012012
:101C300010BD164C00212046FFF75EFF01236360B4
:101C40000423A3601023E3604FF0807393FAA3F39F
:101C5000B3FA83F3013B23614FF4A0636361002374
:101C6000A361E3612362204604F094FA08B10120E5
:101C7000DEE72046FFF765FE30B92046FFF7C3FEDA
:101C80000028D5D00420D3E70420D1E7C40B0020DE
:101C9000001000A02DE9F04383B081464FF000080A
:101CA000CDF80480204C0126266010276760A660CE
:101CB000C4F80C801D4D4FF6FF722146284605F0F2
:101CC0003EFF304600F0CAFA022323606760A66038
:101CD000C4F80C804FF6FF722146284605F02FFF0E
:101CE0000323236067600823A360C4F80C804FF6C9
:101CF000FF722146284605F022FF4FF40873019336
:101D0000042323606760A660019BE3604FF6FF72C7
:101D10002146284605F013FF4946284605F030FFC6
:101D200003B0BDE8F08300BF700C00209C0C0020C5
:101D300070B58EB00646534B9A6B42F001029A631F
:101D40009A6B02F001020192019A1A6B42F480022E
:101D50001A631A6B02F480020292029A1A6B42F022
:101D600004021A631A6B02F004020392039A1A6BBC
:101D700042F008021A631A6B02F008020492049AF5
:101D80001A6B42F010021A631A6B02F010020592ED
:101D9000059A1A6B42F020021A631A6B02F02002B5
:101DA0000692069A1A6B42F040021A631A6B02F00E
:101DB00040020792079A1A6B42F080021A631B6B6B
:101DC00003F080030893089B02230A9301220B92DD
:101DD0000C930C230D930823099309A92A4801F0B9
:101DE0008FF84CF20373099309A9284801F088F889
:101DF0004FF68373099309A9254801F081F84FF63E
:101E00003F03099309A9234801F07AF848F23313F4
:101E1000099309A9204801F073F82823099309A917
:101E20001E4801F06DF81E4C002565608023A360FC
:101E30004FF40073E3604FF4806323614FF48053E9
:101E400063614FF48043A361E5614FF40033236283
:101E500065620323A362E5622563124B236034634A
:101E6000A663204600F07CFB204600F011FB2A46CA
:101E70000F21382000F05CFA382000F069FA0EB02B
:101E800070BD00BF0038024000080240000C024054
:101E9000001002400014024000180240001C0240E2
:101EA000100C00201064024038B51B4C1B4B236003
:101EB0001B4D02232B60072169600422AA60E960A0
:101EC0002B616B61AB6100216160A160E260102356
:101ED0002361402363614FF48073A361E1614FF498
:101EE000006323624FF480536362A1622046FFF7D0
:101EF0001FFF2946204605F0F1FD48B1094B01229C
:101F00001A7040F20360FFF7C5FE064B187838BD23
:101F1000044B00221A70F4E79C0C0020400100A042
:101F2000800C00203000002010B50D4B18800D4BA8
:101F300019800D4C2368702098476368702098477B
:101F4000512801D0032010BD084A14607020084AAF
:101F50001070084A08211170E36898470020F2E7E2
:101F6000FC0C0020FA0C002008000020000D0020CE
:101F7000F80C0020F90C002010B582B004460023B4
:101F8000019301A91E4B1878FFF7C4F8019B1C2B85
:101F900012D81C2B31D8DFE803F019303030303044
:101FA000303030303030303030301C303030203055
:101FB0003030243030302800402B1AD0492B03D148
:101FC0000623A362002019E0012017E00020A06290
:101FD00014E00123A362002010E00223A36200208A
:101FE0000CE00323A362002008E00423A362002086
:101FF00004E00523A362002000E0012002B010BD30
:10200000F80C002070B592B00546002305930493A8
:102010000393694B1B681B69684A107898472870BE
:10202000002800F0C68000241FE012AA02EB440240
:1020300032F8241C22F80C1C32F8301C22F8181C30
:1020400027E09BB25B1A9BB256E092B2921B92B20F
:102050005FE005EB44035980231D05EB43039E809D
:102060007BE02B190122DA7601342B78A34240F26F
:102070009D80514B1B685B6906AA02EB440209A9CB
:1020800001EB44014D48007898474D4B1B78012BDC
:10209000CBD013F0020F08D012AA02EB440131F8A2
:1020A000242CC2F5805221F80C2C13F0040F08D018
:1020B00012AA02EB440131F8302CC2F5805221F80B
:1020C000182C13F0080F0AD012AB03EB440333F8BB
:1020D000242C23F8182C33F8302C23F80C2C12ABBA
:1020E00003EB440333F80C1C364B53F8243099426D
:1020F000A7D99BB2CB1A9BB212AA02EB440232F8C8
:10210000186C314A52F8242096429ED992B2B21AE3
:1021100092B21344052B05DD2A4B43F824102A4BB9
:1021200043F82460254B1878702892D0254B53F83B
:102130002420264B1B8802FB03F31B0B05EB4402F8
:102140005380214B53F82420214B1B8802FB03F3BF
:102150001B0B221D05EB4202938003AB009304ABE3
:1021600005AA2146FEF7E8FF2B19059A9A75049AED
:1021700083F82020039B032B3FF676AF01A252F891
:1021800023F000BF63200008952100089D2100086E
:10219000A52100082B190222DA7665E72B19032204
:1021A000DA7661E72B190022DA765DE72846FFF739
:1021B000E3FE12B070BD00BF000D0020F80C00203F
:1021C000F90C0020E40C0020D00C0020FC0C0020B6
:1021D000FA0C002010B504460E4B1A784FF47A73AF
:1021E000B3FBF2F30C4A1068B0FBF3F000F0C2F856
:1021F00068B90F2C01D901200AE0002221464FF0D6
:10220000FF3000F095F8054B1C60002000E0012035
:1022100010BD00BF310000209002002034000020DB
:1022200008B5032000F072F80020FFF7D3FF09F093
:102230004BF8002008BD0000034A1168034B1B78CF
:102240000B441360704700BF040D002031000020D4
:10225000014B1868704700BF040D002038B50446D4
:10226000FFF7F6FF0546B4F1FF3F02D0044B1B78A1
:102270001C44FFF7EDFF401BA042FAD338BD00BF5E
:102280003100002000280CDB00F01F024009012370
:1022900093402030034A42F82030BFF34F8FBFF302
:1022A0006F8F704700E100E0002804DB0901C9B22C
:1022B000044B1954704700F00F000901C9B2024BDA
:1022C0001954704700E400E014ED00E000B500F0A0
:1022D0000700C0F1070CBCF1040F28BF4FF0040C3D
:1022E000031D062B0FD9C31E4FF0FF3E0EFA0CF054
:1022F00021EA000199400EFA03FE22EA0E0241EAA9
:1023000002005DF804FB0023EEE700000649CB68FD
:1023100023F4E0631B041B0C000200F4E0600343A1
:10232000024A1A43CA60704700ED00E00000FA0557
:1023300010B50446054BD868C0F30220FFF7C6FF6E
:1023400001462046FFF7B0FF10BD00BF00ED00E0E2
:10235000002807DB00F01F02400901239340024AD6
:1023600042F82030704700BF00E100E008B5FFF7F9
:1023700089FF08BD0138B0F1807F0BD24FF0E02318
:102380005861054AF02182F8231000209861072245
:102390001A6170470120704700ED00E030B4056815
:1023A0002C6824F480242C60046863608368402BCC
:1023B00005D0036899600368DA6030BC7047036831
:1023C0009A600368D960F8E710B40368D9B210398D
:1023D000094AA2FB01421209084CA25CC2655F29AE
:1023E00006D96FF3090304338365806D10BC704711
:1023F0006FF309038365F8E7ABAAAAAA584201085C
:10240000836A826992B9012B0AD0022B02D00BB1E8
:1024100000207047C36A13F0807F28D100207047E6
:10242000C36AB3F1C07F24D000207047B2F5005FCB
:1024300009D0022B25D9032B25D1C36A13F0807F45
:1024400023D100207047032B03D8DFE803F01404E6
:10245000140A00207047C36A13F0807F0DD100205A
:102460007047C36AB3F1C07F09D0002070470120D4
:1024700070470120704701207047012070470120FC
:10248000704701207047002070470120704700000E
:1024900070B50446FFF7DCFE002C5CD00546022335
:1024A00084F83530002384F834302268136823F030
:1024B0000103136023681A6812F0010F0AD0FFF7B6
:1024C000C7FE431B052BF5D920236365032084F841
:1024D000350070BD1A68214911406268A068024346
:1024E000E06802432069024360690243A069024335
:1024F000E0690243206A02430A43616A04291ED04C
:102500001A602668756925F00705636A1D43042B68
:1025100007D1A36A1D43E36A1BB12046FFF770FF92
:1025200090B975612046FFF74FFFE26D3F2393405E
:10253000836000206065012384F83530C9E7E16AD3
:10254000206B01430A43DBE740236365002384F8E3
:1025500035300120BDE70120BBE700BF3F8010F010
:1025600000282DD038B5054690F83500C0B20228B5
:1025700025D02A68136823F0010313602B68002418
:102580001C602B685C602B689C602B68DC602B688F
:102590001C612B6821225A612846FFF715FFEA6D5E
:1025A0003F2393408360EC632C646C64AC64EC6404
:1025B0002C656C6585F8354085F83440204638BD7B
:1025C0000120704738B50446856D90F83400012825
:1025D00030D0012084F8340094F83500C0B20128CE
:1025E00004D0002384F83430022038BD022084F85F
:1025F0003500002060652046FFF7D0FEE26D3F23E6
:102600009340AB602268136843F01603136022689E
:10261000536943F080035361236C23B1226813682C
:1026200043F0080313602268136843F0010313604A
:102630000020DAE70220D8E770B50446866DFFF780
:1026400007FE94F83530DBB2022B06D08023636599
:10265000002384F83430012070BD054622681368D9
:1026600023F0160313602268536923F0800353613B
:10267000236CE3B12268136823F008031360226817
:10268000136823F00103136023681B6813F0010F24
:1026900011D0FFF7DDFD431B052BF5D92023636522
:1026A000032084F83500002384F83430D4E7A36C89
:1026B000002BDFD1E3E7E26D3F239340B3600123BA
:1026C00084F83530002084F83400C5E790F83530C0
:1026D000DBB2022B03D08023436501207047052322
:1026E00080F835300268136823F00103136000207E
:1026F00070470000F0B583B0044600230193724B8D
:102700001D68724BA3FB0535AD0A876D3E68C26D2F
:1027100008239340334210D003681A6812F0040F64
:102720000BD01A6822F004021A60C26D082393408D
:10273000BB60436D43F001034365E26D01239340A9
:10274000334209D02268526912F0800F04D0BB6076
:10275000636D43F002036365E26D042393403342EB
:1027600009D02268126812F0020F04D0BB60636DBA
:1027700043F004036365E26D10239340334224D099
:102780002268126812F0080F1FD0BB6023681A6815
:1027900012F4802F0DD01B6813F4002F04D1236C8A
:1027A0009BB12046984710E0A36C73B12046984730
:1027B0000BE01A6812F4807F03D11A6822F0080235
:1027C0001A60236C0BB120469847E26D202393409A
:1027D000334255D02268126812F0100F50D0BB60FF
:1027E00094F83530DBB2052B0ED023681A6812F44A
:1027F000802F33D01B6813F4002F2AD1636C002B79
:102800003ED0204698473BE02268136823F0160329
:1028100013602268536923F080035361236CA3B1D2
:102820002268136823F008031360E26D3F2393408E
:10283000BB60012384F83530002384F83430236DE5
:10284000002B3FD0204698473CE0A36C002BE7D1FB
:10285000EBE7E36BA3B12046984711E01A6812F446
:10286000807F09D11A6822F010021A60012384F8CF
:102870003530002384F83430E36B0BB120469847A1
:10288000636DFBB1636D13F0010F17D0052384F85E
:1028900035302268136823F001031360019B013374
:1028A0000193AB4204D823681B6813F0010FF5D1E4
:1028B000012384F83530002384F83430E36C0BB105
:1028C0002046984703B0F0BD90020020B5814E1B12
:1028D00090F83500704730B505686C6C04F0404CDA
:1028E000039C44EA03444CEA04046C640368DA631E
:1028F0004368B3F5403F02D00368D96030BD01F0B2
:102900007F4C01F47F0301F47F45CAB28468032C35
:102910001CD8DFE804F00402070F21F07F410368B0
:102920009963EBE7DB0CAD0ADB0243EA451343EAAC
:10293000D201F4E74FEADC7CDB0CED0A9B0243EAB0
:10294000451343EACC3343EAD201E8E74FEA1C7C63
:102950001B0D2D0B1B0243EA051343EA0C3343EA1C
:102960001211DCE738B310B5044690F83930EBB1FA
:10297000022384F839302268136823F440336168F5
:102980000B4313602268536B23F00703A1680B43CA
:1029900053632268136C6FF30D03E1680B431364F8
:1029A0000020E063012384F8393010BD80F838300E
:1029B00008F0A2FCDCE70120704710B582B00446A5
:1029C00090F83800012812D0012084F83800022045
:1029D00084F83900049800902046FFF77CFF2268B5
:1029E000136843F001031360002002B010BD022001
:1029F000FBE770B582B004460D46002301930368DF
:102A00001B6813F0010F11D12268D369526A134376
:102A100013F0200F47D1236812229A60012384F813
:102A20003930002084F8380002B070BDFFF710FC88
:102A3000064623685A6812F0020FE5D15A680192DF
:102A4000019A12F0210F14D1B5F1FF3FF1D0FFF739
:102A5000FFFB801BA84201D8002DEAD1E36B43F0B5
:102A60002003E363032084F83900002384F838301E
:102A7000DAE7019A12F0200F03D0E26B42F0020273
:102A8000E263019A12F0010F03D0E26B42F00102FF
:102A9000E26321229A60042384F83930002384F809
:102AA00038300120C0E7FFF7D3FB064623685A6899
:102AB00012F0100FAFD15A680192019A12F0290F4B
:102AC00014D1B5F1FF3FF1D0FFF7C2FB801BA84244
:102AD00001D8002DEAD1E36B43F02003E363032028
:102AE00084F83900002384F838309DE7019A12F009
:102AF000080F03D0E26B42F00402E263019A12F085
:102B0000200F03D0E26B42F00202E263019A12F05E
:102B1000010F03D0E26B42F00102E26329229A60C6
:102B2000042384F83930002384F8383001207BE70F
:102B30007047704770B5044603685D681E6815F0FD
:102B4000010F16D016F4807F13D01A6822F4807219
:102B50001A60C36B43F00103C363036801229A60E8
:102B6000042380F83930002380F83830436903B1FA
:102B7000984715F0200F18D016F4005F15D0226882
:102B8000136823F400531360236820229A60E36BD8
:102B900043F00203E363042384F83930002384F80C
:102BA000383063690BB12046984715F0080F18D0EC
:102BB00016F4006F15D02268136823F400631360C5
:102BC000236808229A60E36B43F00403E363042361
:102BD00084F83930002384F8383063690BB120461B
:102BE000984715F0040F02D016F4806F20D115F02D
:102BF000020F16D016F4007F13D02268136823F456
:102C000000731360236802229A60E36BE36301237D
:102C100084F83930002384F8383023690BB120461A
:102C2000984715F0100F02D016F4805F0CD170BDDC
:102C30002268136823F480631360236804229A6077
:102C40002046FFF775FFD2E72268136823F480530C
:102C50001360236810229A60E36BE363012384F816
:102C60003930002384F838302046FFF762FFDEE772
:102C700090F83820012A59D030B40346012280F858
:102C80003820022280F8392000EB0112D0698A1C1A
:102C900012019A5840EA0242093801281DD9881CBD
:102CA00003EB0010406842EA006239BB1C68656AA9
:102CB0001F48284010436062186803EB01129469B2
:102CC0008461D269093A012A0FD9012283F8392097
:102CD000002083F8380030BC7047881C03EB0010DC
:102CE000406800F07F400243DFE7023103EB01114F
:102CF0004A68196822F07F428A62E6E71C68E56943
:102D00000B4828401043E061186803EB01129469F6
:102D10000461D269093A012AD7D8023103EB0111C3
:102D20004A68196822F07F420A62CEE702207047A3
:102D3000F0FFFC001A4BDB6813F0020F04D0194AB5
:102D4000936943F020039361154BDB6813F0100F78
:102D500004D0144A936943F010039361104BDB686D
:102D600013F0200F04D00F4A936943F008039361D6
:102D70000B4BDB6813F0400F04D00A4A936943F011
:102D800004039361064BDB6813F0800F04D0054AFF
:102D9000936943F002039361014BF222DA607047BA
:102DA000003C0240080D00207047704738B53E4B8C
:102DB0001A6922F001021A611A6922F002021A61EC
:102DC0001A6922F0F8021A611A6922F004021A61E3
:102DD000DC6814F001042DD00122DA60334B1B783B
:102DE000DBB2022B1FD0032B4FD0934255D12F4B78
:102DF0005A68013A5A605B685BB12C4DE868FFF78E
:102E0000D3FFEC680134EC60297A204600F050F8DA
:102E100010E0264D4FF0FF34EC602046FFF7C4FF72
:102E200000232B7006E00020FFF7BEFF00201F4BA1
:102E3000187004461C4BDB6813F0F20F15D01B4BC7
:102E40001B78DBB2022B2DD0032B28D0012B04D111
:102E5000164BDC684FF0FF32DA60FFF76BFF20465D
:102E6000FFF7A3FF114B00221A70104B1B785BB9C0
:102E70000D4B1A6922F080721A611A6922F00072F1
:102E80001A610A4B00221A7538BD084C2069FFF7F9
:102E90008BFF002020700446CCE70024CAE7034BD8
:102EA0001C69DAE70024D8E7003C0240080D002046
:102EB000012905D0022906D039B14FF4407104E050
:102EC0004FF4807101E04FF400710C4B1A6922F449
:102ED00040721A611A690A431A611A6922F0F802EB
:102EE0001A611A6942EAC00040F0020018611A69CA
:102EF00042F480321A61BFF34F8F7047003C0240AA
:102F000000230F2B00F2F78030B583B069E08568AD
:102F10004FEA430E032404FA0EF425EA0405CC68B4
:102F200004FA0EF42C438460446824EA02044A68DC
:102F3000C2F300129A402243426060E0DC08083489
:102F400050F8242003F00705AD004FF00F0E0EFAE5
:102F500005FE22EA0E0E0A69AA4042EA0E0240F875
:102F6000242060E0092200E0002202FA0EF22A4347
:102F70000234614D45F82420604A94686FEA0C02DF
:102F800024EA0C05D1F804E01EF4801F01D04CEABD
:102F900004055A4CA560E46802EA0405D1F804E08F
:102FA0001EF4001F01D04CEA0405544CE56064682F
:102FB00002EA0405D1F804E01EF4003F01D04CEA17
:102FC00004054E4C6560246822404D6815F4803F2E
:102FD00001D04CEA0402494C226001330F2B00F26D
:102FE000888001229A400C6804EA020C32EA040448
:102FF000F3D14C6804F00304013C012C87D94A68E2
:1030000002F00302032A09D0C4685D000322AA402B
:1030100024EA02048A68AA402243C2604A6802F095
:103020000302022A8AD004684FEA430E032202FAFE
:103030000EF224EA02044A6802F0030202FA0EF2D7
:10304000224302604A6812F4403FC6D02C4A546CB6
:1030500044F480445464526C02F480420192019A18
:103060009C08A51C244A52F8255003F0030E4FEA91
:103070008E0E0F2202FA0EF225EA0205214A904234
:103080003FF472AF02F58062904222D002F5806276
:10309000904220D002F5806290421ED002F58062FC
:1030A00090421CD002F5806290421AD002F58062F4
:1030B000904218D002F58062904216D002F58062EC
:1030C000904214D002F5806290423FF44BAF0A2246
:1030D0004BE7012249E7022247E7032245E70422A2
:1030E00043E7052241E706223FE707223DE70822A2
:1030F0003BE703B030BD704700380140003C014061
:10310000003802400000024000230F2B00F29B8099
:10311000F0B52DE0092500E0002505FA0CF5A542E3
:1031200075D004685D004FF0030C0CFA05FC24EA2E
:103130000C0404604FEAD30E0EF1080E50F82E4036
:1031400003F00706B6000F25B54024EA050440F851
:103150002E40C46824EA0C04C460446824EA0202D5
:103160004260826822EA0C02826001330F2B69D828
:1031700001229A4002EA010632EA0104F5D14FEA3F
:10318000930E0EF10205304C54F8254003F0030C69
:103190004FEA8C0C0F2505FA0CF73C402B4DA8424A
:1031A000BAD005F58065A84221D005F58065A84212
:1031B0001FD005F58065A8421DD005F58065A842A1
:1031C0001BD005F58065A84219D005F58065A84299
:1031D00017D005F58065A84215D005F58065A84291
:1031E00013D005F58065A84294D00A2595E70125FE
:1031F00093E7022591E703258FE704258DE7052551
:103200008BE7062589E7072587E7082585E7104C22
:10321000256825EA06052560656825EA06056560D6
:10322000E56825EA0605E560A56825EA0605A560C6
:10323000054E0EF1020456F8245025EA070546F81B
:1032400024506EE7F0BD7047003801400000024096
:10325000003C01400AB181617047090481617047F7
:1032600003689A6912F0020F01D000229A62036883
:103270009A6912F0010F03D19A6942F001029A6132
:10328000704710B4019CC1F3090141EA024119439E
:10329000214321F0004102685368640D04F4806406
:1032A00044F07F7444F4583444F47F7444F00304CD
:1032B00023EA04030B43536010BC704711F0010F65
:1032C00009D090F8413003F02803282B01D0F223D5
:1032D00002E0422300E0002311F0020F09D043F086
:1032E000440C90F8412002F02802282A10D043F024
:1032F000F40311F4004F0DD110290ED020290FD066
:10330000402910D001680A6822EA03030B60704765
:103310006346EEE743F0B803EEE743F09003EDE7D2
:1033200043F02003ECE743F04003EBE72DE9F041E5
:10333000044603689E6916F010067ED00D4690463E
:103340001022DA61002637462368986910F0200FB2
:1033500032D18FBBB5F1FF3FF6D0FEF779FFA0EB7E
:103360000800A84201D8002DEED121684A6802F475
:10337000804294F84230DBB2886910F4004F04D0E8
:10338000203B18BF012302B973B923689B6913F06E
:10339000200FD9D1FEF75CFFA0EB08001928F4D963
:1033A00046F020060127CFE74B6843F480434B608B
:1033B000FEF74EFF8046E8E70FB92022DA6146F0BB
:1033C000040601252268936913F4807F05D046F036
:1033D00001064FF48071D161012513F4806F06D08E
:1033E00046F0080622684FF48061D161012513F48C
:1033F000007F24D046F0020623684FF40072DA61A1
:1034000001252046FFF72CFF2268536823F0FF7345
:1034100023F48B3323F4FF7323F001035360636CB5
:1034200033436364202384F84130002384F842301E
:1034300084F840302846BDE8F0810025C2E7002D21
:10344000F8D0DEE770B504460D46164623689B6942
:1034500013F0020F22D1324629462046FFF766FFBD
:10346000F0B9B5F1FF3FF1D0FEF7F2FE801BA842A4
:1034700001D8002DEAD123689B6913F0020FE5D132
:10348000636C43F020036364202384F841300023FD
:1034900084F8423084F84030012000E0002070BD04
:1034A0000120FCE72DE9F8430546884617461E46ED
:1034B000DDF820902B689C6938EA04040CBF0123D6
:1034C0000023BB4227D14A4631462846FFF72EFF4C
:1034D00020BBB6F1FF3FEDD0FEF7BAFEA0EB09002E
:1034E000B04201D8002EE5D12B689B6938EA03036E
:1034F0000CBF01230023BB42DCD16B6C43F02003E3
:103500006B64202385F84130002385F8423085F82C
:103510004030012000E00020BDE8F8830120FBE7F7
:103520002DE9F04182B0044690461D46089E099F51
:10353000194B00934FF08073EAB2FFF7A2FE3A46B0
:1035400031462046FFF77EFFF8B9012D0ED12368E2
:103550005FFA88F29A620097334600228021204663
:10356000FFF7A0FFA8B902B0BDE8F08123684FEAD9
:1035700018229A623A4631462046FFF763FF30B977
:1035800023685FFA88F29A62E5E70120EBE7012001
:10359000E9E70120E7E700BF002000802DE9F041C6
:1035A00082B0044690461D46089E099F184B009322
:1035B0000023EAB2FFF765FE3A4631462046FFF7A0
:1035C00041FFF8B9012D0ED123685FFA88F29A62A3
:1035D00000973346002240212046FFF763FFA8B939
:1035E00002B0BDE8F08123684FEA18229A623A4699
:1035F00031462046FFF726FF30B923685FFA88F28C
:103600009A62E5E70120EBE70120E9E70120E7E71F
:103610000020008070B504460D46164604E023687D
:103620009B6913F0200F12D023689B6913F0200FC1
:103630001BD1324629462046FFF778FEB8B9FEF77F
:1036400007FE801BA842EAD8002DEDD1E7E7636CA6
:1036500043F020036364202384F84130002384F87E
:10366000423084F84030012000E0002070BD01208D
:10367000FCE7000000285DD010B5044690F841300A
:10368000002B46D0242384F841302268136823F0AD
:10369000010313606368226823F07063136122687A
:1036A000936823F400439360E368012B36D0A3684A
:1036B000226843F404439360E368022B34D0226809
:1036C000536823F400635360226851681A4B0B431C
:1036D00053602268D36823F40043D360236962698E
:1036E0001343A169226843EA0123D360E369216A95
:1036F00022680B4313602268136843F001031360D0
:1037000000206064202384F84130206384F8420064
:1037100010BD80F8403007F005FEB3E7A3682268CB
:1037200043F400439360C7E72268536843F400639F
:103730005360C9E70120704700800002A8B110B5AE
:103740000446242380F841300268136823F0010303
:10375000136007F02DFE0020606484F841002063B0
:1037600084F8420084F8400010BD0120704700003A
:103770002DE9F04782B00F460A9E90F84110C9B279
:10378000202940F0B78004469046994690F8403092
:10379000012B00F0B3804FF0010A80F840A0FEF743
:1037A00057FD05460090192352464FF4004120462C
:1037B000FFF778FE002840F0A380212384F84130F1
:1037C000102384F8423000236364C4F82480A4F8F2
:1037D0002A906363638D9BB2FF2B1ED9FF23238541
:1037E0004FF08073228DEAB1226898F80010916240
:1037F000626A01326262628D92B2013A92B262856D
:10380000228D013A92B22285013241490091D2B211
:1038100039462046FFF735FD18E0638D23854FF0CC
:103820000073DFE73A490091D2B239462046FFF7EC
:1038300028FD0BE0628D92B22285002300934FF0A9
:103840000073D2B239462046FFF71BFD638D9BB251
:10385000002B33D02A4631462046FFF7F3FD0028DF
:1038600050D1626A236812789A62636A0133636294
:10387000638D9BB2013B9BB26385238D013B9BB261
:103880002385628D92B2002AE0D0002BDED1009514
:103890003346002280212046FFF704FEA0BB638D43
:1038A0009BB2FF2BC6D9FF222285002300934FF045
:1038B000807339462046FFF7E4FCC7E72A463146C5
:1038C0002046FFF7A7FE08BB23682022DA612168A3
:1038D0004B6823F0FF7323F48B3323F4FF7323F03F
:1038E00001034B6084F84120002384F8423084F8BF
:1038F000403000E0022002B0BDE8F0870220FAE785
:103900000120F8E70120F6E70120F4E70120F2E7C3
:10391000002000802DE9F04F83B00D46BDF834A0A3
:103920000E9F90F84110C9B2202940F0BC80044697
:10393000904699460C9BBAF1000F18BF002B16D089
:1039400090F84030012B00F0B2804FF0010B80F86E
:1039500040B0FEF77DFC0646009019235A464FF40E
:1039600000412046FFF79EFD30B101209CE04FF45E
:1039700000734364012097E0212384F84130402301
:1039800084F84230002363640C9A6262A4F82AA08F
:103990006363019600974B46424629462046FFF74F
:1039A000BFFD70B9638D9BB2FF2B0FD9FF2222851B
:1039B000002300934FF0807329462046FFF761FCF7
:1039C00021E0002384F8403058466DE0628D92B2C9
:1039D0002285002300934FF00073D2B2294620467F
:1039E000FFF74FFC0FE0628D92B222850023009317
:1039F0004FF00073D2B229462046FFF742FC638D98
:103A00009BB2002B33D0324639462046FFF71AFDD1
:103A100000284ED1626A236812789A62636A013381
:103A20006362638D9BB2013B9BB26385238D013B37
:103A30009BB22385628D92B2002AE0D0002BDED1AA
:103A400000963B46002280212046FFF72BFD90BBCD
:103A5000638D9BB2FF2BC6D9FF22228500230093E2
:103A60004FF0807329462046FFF70BFCC7E732462C
:103A700039462046FFF7CEFDF8B923682022DA61E7
:103A800021684B6823F0FF7323F48B3323F4FF7317
:103A900023F001034B6084F84120002384F8423076
:103AA00084F8403000E0022003B0BDE8F08F02202F
:103AB000FAE70120F8E70120F6E70120F4E700002B
:103AC0002DE9F04F83B00D46BDF834A00E9F90F85D
:103AD0004110C9B2202940F0BD8004469046994665
:103AE0000C9BBAF1000F18BF002B16D090F8403095
:103AF000012B00F0B3804FF0010B80F840B0FEF7CF
:103B0000A7FB0646009019235A464FF40041204671
:103B1000FFF7C8FC30B101209DE04FF4007343640F
:103B2000012098E0222384F84130402384F8423079
:103B3000002363640C9A6262A4F82AA0636301966E
:103B400000974B46424629462046FFF727FD70B9AD
:103B5000638D9BB2FF2B0FD901222285434B00932B
:103B60004FF0807329462046FFF78BFB21E00023AE
:103B700084F8403058466EE0628D92B222853B4B0D
:103B800000934FF00073D2B229462046FFF779FB2D
:103B90000FE0628D92B22285002300934FF00073F4
:103BA000D2B229462046FFF76CFB638D9BB2002BF7
:103BB00034D000963B46002204212046FFF772FCD9
:103BC00000284DD123685A6A636A1A70636A013308
:103BD0006362228D013A92B22285638D9BB2013BD2
:103BE0009BB26385638D9BB2002BDED0002ADCD1B3
:103BF00000963B4680212046FFF754FC90BB638D26
:103C00009BB2FF2BC5D901222285002300934FF0E0
:103C1000807329462046FFF734FBC6E73246394613
:103C20002046FFF7F7FCF8B923682022DA61216803
:103C30004B6823F0FF7323F48B3323F4FF7323F0DB
:103C400001034B6084F84120002384F8423084F85B
:103C5000403000E0022003B0BDE8F08F0220FAE718
:103C60000120F8E70120F6E70120F4E700240080B6
:103C700008B5036899691A68436B03B1984708BD92
:103C80007047704710B5044603681A68002180F831
:103C9000421012F4804F0ED01A6822F480421A604B
:103CA00094F84130DBB2292B0DD094F84130DBB2CF
:103CB0002A2B18D010BD12F4004FF1D01A6822F44C
:103CC00000421A60ECE7282384F841302123236363
:103CD00001212046FFF7F2FA002384F84030204605
:103CE000FFF7CEFFE6E7282384F841302223236341
:103CF00002212046FFF7E2FA002384F840302046F4
:103D0000FFF7BFFFD6E77047F8B5044690F841309B
:103D100003F02803282B06D003680822DA61002369
:103D200080F84030F8BD03689E69C6F300469A6982
:103D3000120C02F0FE059A68C2F30902DF6807F070
:103D4000FE07C168022922D185EAD21515F0060FB7
:103D500010D1816C01318164816C0229E2D1002192
:103D600081640820D86184F8401031462046FFF76E
:103D7000CAFFD7E74FF40041FFF7A0FA002384F809
:103D800040303A4631462046FFF7BDFFCAE74FF4C0
:103D90000041FFF793FA002384F840302A46314669
:103DA0002046FFF7B0FFBDE77047000010B504469E
:103DB000174BC36200230363202280F8412080F860
:103DC0004230436311F0040F13D003685A6A436A08
:103DD0001A70436A01334362038D53B1013B03857B
:103DE000438D9BB2013B9BB24385436C43F004037C
:103DF000436448F203012046FFF760FA236810226B
:103E0000DA61002384F840302046FFF7CDFF10BD73
:103E10000000FFFF7047704708B590F84130DBB2F3
:103E2000602B06D00023036380F84030FFF7F2FFD9
:103E300008BD202380F841300023036380F8403020
:103E4000FFF7E9FFF4E7000010B5044690F84130B1
:103E5000002280F842204548E0626285626C0A4395
:103E60006264283BDBB2022B2DD803212046FFF7EA
:103E700025FA282384F841303D4B6363236BA26B02
:103E8000002A49D0212B18BF112B45D123681A686D
:103E900012F4804F03D01A6822F480421A60A06B9B
:103EA000FEF716FD012833D0A36B324A1A650023B2
:103EB00084F84030A06BFEF709FC002855D0A06BB9
:103EC000036D984751E048F203012046FFF7F6F9E9
:103ED0002046FFF7C5F994F84130DBB2602B14D0CF
:103EE000202384F8413023689A6912F0200F0CD007
:103EF0009A6912F0100F05D01022DA61636C43F05A
:103F00000403636423682022DA6100236363B5E756
:103F10002046FFF781FF28E0E26B1AB3222B18BF7F
:103F2000122B1FD123681A6812F4004F03D01A68AD
:103F300022F400421A60E06BFEF7CAFC01280DD0A3
:103F4000E36B0C4A1A65002384F84030E06BFEF7FF
:103F5000BDFB50B1E06B036D984706E02046FFF7CC
:103F60005BFF02E02046FFF757FF10BD0000FFFF98
:103F7000694100081D430008F8B504460D46026873
:103F80001668C76A90F841302021D161213B092B86
:103F90000CD8DFE803F0057A0B0B0B0B0B81057ACD
:103FA00048F20101FFF78AF921232363226853684D
:103FB00043F4004353602268536823F0FF7323F4F3
:103FC0008B3323F4FF7323F0010353602046FFF784
:103FD00047F916F4804F66D02268136823F48043B3
:103FE0001360A36B1BB11B685B689BB2638515F004
:103FF000040F11D025F0040523685A6A636A1A7009
:10400000636A01336362238D33B1013B2385638D82
:104010009BB2013B9BB26385638D9BB21BB1636C0A
:1040200043F00403636415F0100F13D016F0100F63
:1040300010D0638D9BB2002B5AD194F84130DBB283
:10404000282B40D094F84130DBB2292B43D0236891
:104050001022DA61002384F842306363636C002B22
:1040600057D1E36A13F5803F61D194F84130DBB258
:10407000222B6CD0202384F841300023236384F862
:1040800040302046FFF7FCFD60E048F20201FFF7F8
:1040900015F92223236389E748F20301FFF70EF99C
:1040A0000023236382E716F4004FA0D02268136830
:1040B00023F400431360E36B002B98D01B685B680C
:1040C0009BB2638593E7B7F1007FBBD129462046B9
:1040D000FFF76CFEBEE717F5803FB8D023681022CB
:1040E000DA612046FFF7BCF82046FFF7CBFDB1E7C9
:1040F00023681022DA61636C43F004036364B7F150
:10410000807F18BF002FA5D1616C2046FFF79CFE71
:10411000A0E7616C2046FFF797FE94F84130DBB2D0
:10412000282B13D129462046FFF740FE0EE02046FB
:10413000FFF7A8FD0B4BE362202384F841300023F6
:10414000236384F840302046FFF72EFEF8BD20237D
:1041500084F841300023236384F840302046FFF781
:1041600090FDF3E70000FFFF10B50446C06A94F825
:104170004030012B00F09B80012384F8403011F087
:10418000200F02D012F0200F16D111F0100F3FD0E7
:1041900012F0100F3CD0638D9BB243BB94F84130BA
:1041A000DBB2282B0FD094F84130DBB2292B11D091
:1041B00023681022DA6102E02046FFF7DDFE0020CE
:1041C00084F8400010BDB0F1007FECD12046FFF72D
:1041D000EDFDF4E710F5803FEAD023681022DA61A4
:1041E0002046FFF73DF82046FFF74CFDE7E7236840
:1041F0001022DA61636C43F004036364B0F1807FE2
:1042000018BF0028DBD1616C2046FFF71DFED6E702
:1042100011F0040F1FD012F0040F1CD0638D9BB25D
:1042200073B123685A6A636A1A70636A01336362FE
:10423000238D013B2385638D9BB2013B9BB263853C
:10424000638D9BB2002BBAD110F5803FB7D02046CA
:10425000FFF718FDB3E711F0080F02D012F0080FB6
:1042600018D111F0020FAAD012F0020FA7D0638D5F
:104270009BB29BB1626A236812789A62636A0133C7
:104280006362638D9BB2013B9BB26385238D013BCF
:10429000238594E72046FFF737FD90E7002818BFF5
:1042A000B0F1807F8BD12046FFF7ECFC87E702203E
:1042B00088E710B502689369116813F4807F09D00C
:1042C00011F0800F06D0446C44F0010444644FF4B4
:1042D0008074D46113F4806F0AD011F0800F07D07E
:1042E000426C42F00802426402684FF48064D46178
:1042F00013F4007F0AD011F0800F07D0436C43F015
:104300000203436403684FF40072DA61416C11F0F8
:104310000B0F00D110BDFFF797FDFBE708B5806BD1
:10432000836B0BB100221A65C36B0BB100221A65B7
:10433000FFF772FD08BD90F841007047034690F802
:104340004120D2B2202A23D190F84020012A21D046
:10435000012280F84020242280F841200068026871
:1043600022F0010202601868026822F480520260A2
:10437000186802681143016019680A6842F0010276
:104380000A60202283F84120002083F84000704713
:104390000220704702207047034690F84120D2B2B5
:1043A000202A21D190F84020012A1FD0012280F834
:1043B0004020242280F841200068026822F0010297
:1043C00002601868026822F4706242EA0122026008
:1043D00019680A6842F001020A60202283F841202D
:1043E000002083F840007047022070470220704789
:1043F000C369012B23D0022B23D1134B5B6813F429
:10440000800F14D1104B5B6803F03F030F4AB2FBDF
:10441000F3F20D49D1F88430C3F30273D1F884006C
:10442000C0F3881002FB00F0B0FBF3F07047064BBE
:104430005B6803F03F03064AB2FBF3F2E9E7054885
:1044400070470020704700BF003802400024F4008D
:1044500040787D010080BB00002800F0878038B5DF
:10446000044690F83930002B55D0022284F83920C8
:104470002168C8693E4B0340CB6123681A626369B7
:1044800093426BD0E368002B4AD11025A368202B00
:1044900000D86D00E369012B44D136482369B3F598
:1044A000007F43D0B0FBF5F000EB80004300626971
:1044B000B3FBF2F30533304AA2FB0323C3F3C0027C
:1044C000C2EBD3035B0811029A1EFD2A48D8226969
:1044D0000A4321681A430A622168CA69244B1340BF
:1044E0006268A0680243E0680243A0690243134384
:1044F00043F40063CB61A368B02B18BF302B04D109
:104500002268D36943F48053D3610020E063012320
:1045100084F8393038BD80F8383006F06DFFA4E7F4
:104520002025B3E72046FFF763FFB7E7E36853B101
:10453000AD00B0FBF5F000EB800043006269B3FB17
:10454000F2F30533B7E7ED00B0FBF5F000EB8000C8
:1045500043006269B3FBF2F30533ACE70021B3E734
:10456000E36B43F01003E3630120D3E701207047BE
:1045700040F0FFFF0080BB00CDCCCCCC704708B52D
:10458000026A03681288DA60036A02330362C38C2A
:104590009BB2013B9BB2C384C38C9BB203B108BDE9
:1045A0000268536823F0A0035360012380F8393078
:1045B000FFF7E4FFF3E7704708B50368DA68836A3A
:1045C0001A80836A02338362C38D9BB2013B9BB224
:1045D000C385C38D9BB203B108BD0268536823F045
:1045E00060035360012380F83930FFF7E4FFF3E7FD
:1045F000704710B5026851689368C3F3801413F0D4
:10460000400F05D113F0010F02D011F0400F23D15C
:1046100013F0020F02D011F0800F20D111F0200F03
:1046200019D03CB1516821F060015160C26B42F079
:104630000202C26313F0080F08D00268536823F027
:10464000A0035360C36B43F00403C363012380F8EA
:104650003930FFF7CDFF10BDFFF7AEFFFBE7FFF7E7
:104660008EFFF8E770B54D680368DC68C4F30B444F
:1046700025444FEAC21C03EBC213D3F8884004F46C
:104680007044C3F888400B680468E668C6F30B46BC
:104690003344013304EBC21443EA0543C4F88830C1
:1046A000CD680368DC68C4F30A04254403EBC21335
:1046B000D3F88C4004F47044C3F88C408B680468D1
:1046C000E668C6F30A0E7344013304EBC21443EAEE
:1046D0000543C4F88C30036803EBC213D3F894404D
:1046E00024F00704C3F89440036803EBC2130C6979
:1046F000C3F8944091F831E091F832608D69036815
:1047000003EBC213D3F89C400024C3F89C4091F8FB
:10471000303043EA0E2343EA0643066806EBC21E26
:1047200043EA0563CEF89C300EF1840E036803EB78
:10473000C213D3F8985025F0FF05C3F898500368CA
:1047400003EBC2134D69C3F89850036803EBC2131F
:10475000D3F8A0602C4D3540C3F8A0500D6A036813
:1047600003EBC213CE693543C3F8A050036803EBD3
:10477000C213D3F8AC50C3F8AC40036803EBC213C8
:104780004A6AC3F8AC200B69072B05D8DFE803F0B1
:104790003A32343634040438012503686344D3F8CC
:1047A000B02002F0E022C3F8B0208B6A05FB03F4CE
:1047B0004B680A689B1A05FB03F3033302686244E3
:1047C00043EA0443C2F8B03003686344D3F8B4202A
:1047D0006FF30A02C3F8B42003686344CA6AC3F8DB
:1047E000B42003686344D3F8842042F00102C3F884
:1047F000842070BD0325D0E70225CEE70225CCE753
:104800000225CAE70425C8E7F8F8FFFF002875D09D
:1048100010B5044690F8A130002B6AD0022384F82A
:10482000A1302268936923F07043936121688A69FB
:104830006368A0680343E0680343206903431343AC
:104840008B6121688A682E4B1A408A6020688268D2
:10485000A169D4F814C041EA0C410A43826021687E
:10486000CA681A40CA602068C268216AD4F81CC0AD
:1048700041EA0C410A43C26021680A691A400A6190
:1048800020680269A16AD4F824C041EA0C410A43B5
:10489000026121684A6913404B61E06A21684B69F3
:1048A000226B42EA004213434B6194F8350094F8BE
:1048B00036301B042168CA6A02F07F42CA6221684E
:1048C000CA6A43EA002394F8340003431343CB62DB
:1048D0002268536B43F0060353632268936943F0E5
:1048E000010393610020C4F8A400012384F8A130DF
:1048F00010BD80F8A03006F011FE8FE70120704750
:1049000000F800F070477047704770B504460368C0
:104910009D6B5E6B15F0040F02D016F0040F12D1E0
:1049200015F0020F02D016F0020F21D115F0010F81
:1049300002D016F0010F32D115F0080F02D016F098
:10494000080F3DD170BD5A6B22F004025A63036810
:104950000422DA63D0F8A43043F00103C0F8A43095
:1049600080F8A120002380F8A030FFF7CBFFD7E725
:104970002268536B23F00203536323680222DA6335
:10498000D4F8A4301343C4F8A430042384F8A1302D
:10499000002384F8A0302046FFF7B4FFC6E7226862
:1049A000536B23F00103536322680123D36384F81C
:1049B000A130002384F8A0302046FFF7A4FFBBE716
:1049C0002268536B23F00803536323680822DA63D9
:1049D000012384F8A130002384F8A0302046FFF79B
:1049E00093FFAFE7F8B590F8A030012B2CD0044628
:1049F0000D461646012780F8A070022380F8A130EA
:104A00004FF0340C0CFB020C0CF1380C8E46BEE857
:104A10000F00ACE80F00BEE80F00ACE80F00BEE8E6
:104A20000F00ACE80F00DEF80030CCF80030324662
:104A300029462046FFF716FE23685F6284F8A170BE
:104A4000002084F8A000F8BD0220FCE790F8A10047
:104A500070472DE9F04383B0D0F8008001EBC1032B
:104A600000EB83039A6A5B6A9A4254D807460C4665
:104A70009B1A01EBC10200EB8202D2699A4200D379
:104A80001A4602F103094FEA990915E006F10309F4
:104A90004FEA9909BB7904EBC40507EB8505296A40
:104AA0000093B3B2E2B2404604F01AF92B6A3344E1
:104AB0002B62AB6A3344AB6208EB441303F510631B
:104AC0009B699BB24B4512D304EBC40307EB8303F2
:104AD0009A6A5B6A9A420AD24BB19B1A04EBC402EF
:104AE00007EB8202D6699E42D0D31E46CEE704EB86
:104AF000C40307EB83077A6ABB6A9A420FD804F0B3
:104B00000F040122A240D8F8343823EA0203C8F87F
:104B10003438002000E0012003B0BDE8F08300201D
:104B2000FAE730B583B0002800F0828004460568BB
:104B300090F89534C3B1032384F89534B5F1A04FB0
:104B400017D0206803F084FE237C8DF80030231DED
:104B50000ECB206803F0C2FD70B1022384F89534B7
:104B60000125284603B030BD80F8943407F032F8B0
:104B7000E1E70023A371E4E70021206804F0C1FA13
:104B8000024608B9034617E0022384F8953401254C
:104B9000E7E703EBC30104EB8101012048750B75C6
:104BA000CB8500200876C861086203EBC30104EBE3
:104BB000810148620133DBB220799842E9D816E0DE
:104BC00002EBC20304EB8303002183F8551283F840
:104BD000542283F85812C3F85C12C3F8601202EB37
:104BE000C20304EB8303C3F864120132D2B29042D1
:104BF000E6D8237C8DF80030231D0ECB206803F00F
:104C00007DFE054658B900236374012384F895346A
:104C1000237B012B08D0206804F032FAA1E702239D
:104C200084F8953401259CE7204600F067FDF2E703
:104C3000012596E790F89434012B0ED010B5044668
:104C4000012380F89434006803F0FCFD206804F030
:104C500009FA002084F8940410BD02207047000077
:104C600070B504460D460068066C00EB411303F571
:104C700030639A68A179012911D038498E4256D003
:104C80003DB905EBC50304EB8303D3F86432002B75
:104C90005ED0E9B2204606F0F3FF002070BD12F0AE
:104CA000080F09D02E498E42F7D912F4004FF4D0E4
:104CB0004FF400429A60F0E712F0200F02D0202259
:104CC0009A60EAE712F0280FE7D125498E4206D90B
:104CD00012F4004F03D04FF400429A60DDE705EB79
:104CE000C50204EB8202D2F874121B69C3F31203EB
:104CF000CB1AC2F868327DB905EBC50204EB82021B
:104D0000D2F864226AB105EBC50204EB8202D2F844
:104D100060121944C2F86012E9B2204606F0B0FFF2
:104D2000BBE704F29C42012104F02AFAF4E712F4F2
:104D3000004F03D04FF400429A60AEE712F0200F0C
:104D400001D020229A60E9B2204606F099FFA4E73C
:104D500004F29C42002104F013FA9AE70A31544FFE
:104D60000A30544F38B5044603681D6C03EB4113F9
:104D7000D3F8081B0E4A954207D903F5306311F4A6
:104D8000004F02D04FF400429A60204606F070FFB8
:104D9000074B9D4202D9A379012B01D0002038BDD9
:104DA00004F29C420121206804F0EAF9F6E700BF12
:104DB0000A30544F90F89434012B0CD010B50446AF
:104DC000012380F894344174006804F03BF900201A
:104DD00084F8940410BD0220704738B505468C460F
:104DE00011F0800F29D101F00F0E0EEBCE04A400BC
:104DF00004F514740444211D0EEBCE0E00EB8E0E50
:104E000000208EF855020CF00F0C81F800C08A606B
:104E10000B714A780AB1A1F81AC0022B1CD095F880
:104E20009434012B1BD0012385F89434286803F0B7
:104E30003DFE002085F8940438BD01F00F0000EB22
:104E4000C001890010312944043100EBC00005EB9A
:104E5000800001244475D6E700234B71DFE7022070
:104E6000EAE710B504460A4611F0800F20D101F0A0
:104E70000F0000EBC0039B0003F514732344191DBE
:104E800000EBC00004EB8000002380F8553202F0F4
:104E90000F020A7094F89434012B18D0012384F87F
:104EA0009434206803F04EFE002084F8940410BD72
:104EB00001F00F0000EBC0039B0010332344191DC9
:104EC00000EBC00004EB800001234375DFE7022004
:104ED000EDE710B5144601F00F0C0CEBCC01890086
:104EE00001F51471014404310CEBCC0E00EB8E0E75
:104EF000CEF86022CEF864320023CEF868328EF805
:104F000055328EF854C28279012A04D0006803F029
:104F1000FFFE002010BDCEF87042F7E701F00F0150
:104F200001EBC10100EB8100D0F86802704710B5B9
:104F3000144601F00F0C0CEBCC0189001031014438
:104F400004310CEBCC0E00EB8E0ECEF82020CEF808
:104F500024300023CEF8283001238EF815308EF847
:104F600014C082799A4204D0006803F0D1FE002078
:104F700010BDCEF83040F7E738B501F00F050279E3
:104F8000AA4238D304460B4611F0800F1FD101EB23
:104F9000C101890001F514710144043103EBC3031D
:104FA00000EB8303002283F8552201238B700D70E0
:104FB00094F89434012B20D0012384F89434206891
:104FC00003F0E5FF85B1002084F8940438BD05EBBB
:104FD000C501890010310144043105EBC50300EB24
:104FE000830301225A75E0E704F29C42A17920680C
:104FF00004F0C6F8E7E70120E8E70220E6E701F061
:105000000F0302799A4230D310B5044611F0800F95
:105010001ED103EBC301890001F514710144043171
:1050200003EBC30200EB8202002082F8550200224B
:105030008A700B7094F89434012B18D0012384F8F3
:105040009434206803F0D0FF002084F8940410BD4D
:1050500003EBC301890010310144043103EBC302A7
:1050600000EB820201205075E1E701207047022029
:10507000EDE708B511F0800F0CD101F00F0101EB45
:10508000C101890001F5147101440431006803F085
:10509000C9FD08BD01F00F0101EBC101890010310C
:1050A00001440431F2E72DE9F04F83B0044605686E
:1050B000284604F022F810B103B0BDE8F08F064690
:1050C000206803F0EBFF0028F6D005F50067BB6809
:1050D000C3F30D23C4F8D434206803F0DFFF10F0CD
:1050E000020F04D02268536903F002035361206861
:1050F00003F0D4FF10F0100F16D02268936923F04C
:1051000010039361D5F8208008F00F0908F4F0131C
:10511000B3F5802F6AD0B3F5402F00F08D80226860
:10512000936943F010039361206803F0B7FF10F414
:10513000002F40F09380206803F0B0FF10F4802F20
:1051400040F0FC80206803F0A9FF0028C0F27D81B8
:10515000206803F0A3FF10F4006F09D0BB6813F0C0
:10516000010F40F08A812268536903F400635361A0
:10517000206803F093FF10F0006F15D02268536988
:1051800003F00063536194F8CC34002B40F0798134
:10519000012184F8CC1423685B6DC3F38303C4F846
:1051A000D034204606F024FE206803F077FF10F488
:1051B000805F40F06A81206803F070FF10F4005FA8
:1051C00040F0B681206803F069FF10F0080F40F04E
:1051D000C781206803F062FF10F0800F00F0DA81D1
:1051E000AB6923F08003AB610126C3E147F6F0739E
:1051F00018EA030F93D04FEA181A4FEAC903019334
:1052000009EBC90B04EB8B0BC8F30A12DBF8601235
:10521000284603F099FEDBF86032CAF30A0A5344C9
:10522000CBF86032DBF86832019A4A4404EB820220
:105230005344C2F8683272E7082204F29C412846BF
:1052400003F082FE09EBC90304EB8303D3F8682261
:10525000C8F30A184244C3F8682260E7206803F0E4
:1052600021FF8046B14635E005EB49130122C3F822
:10527000082B49462046FFF7F3FC3CE005EB4913B9
:105280000822C3F8082B49462046FFF76BFD35E09E
:1052900009EBC90304EB830393F85732012B41D088
:1052A00005EB49130222C3F8082B1AF0200F04D093
:1052B00005EB49132022C3F8082B1AF4005F05D030
:1052C00005EB49134FF40052C3F8082B09F101090B
:1052D0004FEA5808B8F1000F3FF42DAF18F0010F56
:1052E000F4D05FFA89FB5946206803F0EBFE824652
:1052F00010F0010FB8D11AF0080FBFD11AF0100F3B
:1053000004D005EB49131022C3F8082B1AF0020F42
:10531000CBD06B6913F0800FBAD07B6843F4806305
:105320007B60B5E709EBC90304EB8303002283F834
:1053300057225946204606F0F3FCB1E7206803F0F7
:10534000B9FE8046B14625E05946204606F0A4FC49
:105350001AF0080F04D005EB49130822C3F80829F6
:105360001AF0100F04D005EB49131022C3F80829D6
:105370001AF0400F04D005EB49134022C3F8082966
:105380001AF0020F40D11AF0800F59D109F101092A
:105390004FEA5808B8F1000F3FF4D4AE18F0010FEF
:1053A000F4D05FFA89FB5946206803F094FE8246E8
:1053B00010F0010FCCD009F00F02012101FA02F226
:1053C0007B6B23EA02037B6305EB4913C3F80819DF
:1053D000A3798B42B8D109EBC90304EB83031A6AA2
:1053E000D9690A441A62B9F1000FADD109EBC903BA
:1053F00004EB83035B6A002BA6D104F29C420121DB
:10540000206803F0BDFE9FE74946284603F026FAD0
:1054100009EBC90304EB8303DB7D012B05D005EB0E
:1054200049130222C3F80829ADE709EBC90304EBCD
:1054300083030022DA755946204606F077FCEEE732
:1054400049462046FFF705FBA0E77B6823F00103F0
:105450007B6094F8CC34012B08D0204606F05AFC2F
:105460002268536903F00043536171E6002184F818
:10547000CC14204606F0BCFCF2E7204606F032FCD5
:1054800071E6204606F02EFC8EE67B6823F00103D1
:105490007B601021206803F0E1F91AE005EB461368
:1054A0004FF67F31C3F80819D3F8002922F400120F
:1054B000C3F80029C3F8081BD3F8002B22F400120C
:1054C000C3F8002BD3F8002B42F00062C3F8002B86
:1054D00001362379B342E1D8FB6943F00113FB6144
:1054E000E37BDBB1D7F8843043F00B03C7F884309B
:1054F0007B6C43F00B037B64D5F8003823F4FE6328
:10550000C5F8003804F29C42A179206803F038FE07
:105510002268536903F4805353614CE67A6942F27E
:105520002B0313437B613B6943F00B033B61E3E7D0
:10553000206803F017FE206803F0A6FAE0712668E1
:1055400001F0F0F90146E279304603F009F920460E
:1055500006F0B3FB2268536903F40053536131E64C
:10556000204606F0A4FB2268536903F00803536148
:105570002FE601362379B3420CD906EBC60304EBC0
:10558000830393F85732012BF3D1F1B22046FFF792
:1055900070FDEEE7206803F081FD10F4801F25D137
:1055A000206803F07BFD10F4001F59D0012326E092
:1055B00001362379B3421BD905EB4613D3F80029F2
:1055C00006EBC60304EB83031B7E012BF0D1002AFC
:1055D000EEDA06EBC60304EB83030122DA7566F00C
:1055E0007F01C9B22046FFF744FDE1E70126E0E76D
:1055F0002268536903F480135361D1E701332279A0
:105600009A4228D905EB4312D2F8001B03EBC302E0
:1056100004EB820292F85822012AEFD10029EDDA38
:1056200001F48031D4F8D42402F001029142E5D192
:1056300003EBC30204EB8202012182F85712AA692C
:1056400042F08002AA616A6912F0800FD6D17B68AD
:1056500043F400737B602268536903F400135361C1
:10566000206803F01BFD10F0804F10D1206803F07C
:1056700015FD10F0040F3FF41FAD23685D6815F0B1
:10568000040F0DD1226853682B43536014E5204664
:1056900006F052FB2268536903F080435361E5E74B
:1056A000204606F04FFBEDE710B40468606A29B9A4
:1056B00040EA0240A062002010BC70478C46A36AFA
:1056C00000EB1340002308E003F1400104EB8101EB
:1056D000496800EB11400133DBB20CF1FF318B4222
:1056E000F2D340EA02400CF13F0104EB8104606018
:1056F000E1E7036859620020704700000346026832
:105700000121C0F8D814002083F8CC04936943F039
:1057100000639361516D024B0B435365704700BFAB
:1057200003000010024A136843F48073136070474B
:10573000007000407047000008B5064B5B6913F429
:10574000803F00D108BDFFF7F5FF024B4FF48032D8
:105750005A61F7E7003C014010B582B01B4B1A6C50
:1057600042F080521A641B6C03F080530193019B3A
:10577000174A136843F480331360FCF769FD04464D
:10578000134B5B6813F4803F08D1FCF761FD001BED
:10579000B0F57A7FF4D9032002B010BD0C4A13682B
:1057A00043F400331360FCF753FD0446084B5B6879
:1057B00013F4003F07D1FCF74BFD001BB0F57A7FD7
:1057C000F4D90320E8E70020E6E700BF00380240F4
:1057D00000700040F0B44B6A33B1B2F1406F03D0B7
:1057E0008B6A0468013B23618C69002C6FD00E6AC0
:1057F000002E3BD003688C68DC61CC69F4B1CB6AC5
:105800000D6B2B434D6B2B434D6A2B434D6943EA84
:1058100085430D692B430D6A2B43CD682B432343EE
:105820008C6923430C682343046813436361B2F11A
:10583000406F19D003684A689A6115E0CB6A0D6B16
:105840002B434D6B2B434D6A2B434D6943EA8543F4
:105850000D692B430D6A2B4323438C69234309684D
:105860000B43016813434B61F0BC7047CD69D5B160
:10587000CB6A0F6B3B434F6B3B434F6A3B434F69D4
:1058800043EA87433343CE6833432B4323430C68B7
:105890002343046813436361B2F1406FE4D00368AB
:1058A0004A689A61E0E7CB6A0F6B3B434F6B3B431F
:1058B0004F6A3B434F6943EA87431E4345EA060369
:1058C000234309680B43016813434B61CCE70D6A1E
:1058D000002D36D003688C68DC61CC69E4B1CB6AFA
:1058E0000D6B2B434D6B2B434D6A2B434D6943EAA4
:1058F00085430D692B430D6A2B43CD682B4323430E
:105900008C692343046813436361B2F1406FABD0E9
:1059100003684A689A61A7E7CB6A0D6B2B434D6B0E
:105920002B434D6A2B434D6943EA85430D692B4355
:105930000D6A2B431C438B691C43036814435C6151
:1059400092E7CE69CEB1CB6A0F6B3B434F6B3B43C3
:105950004F6A3B434F6943EA87432B43CD682B4350
:1059600033432343046813436361B2F1406F3FF450
:105970007BAF03684A689A6176E7D1F824C0BCF12E
:10598000000F3FF471AFCB6A0F6B3B434F6B3B4350
:105990004CEA03074B6947EA83473D432E433443B0
:1059A000036814435C615FE72DE9F84305460F4641
:1059B00016469946DDF820802C68A4683C4214BF46
:1059C0004FF0010C4FF0000CB44514D0B8F1FF3F7C
:1059D000F2D0FCF73DFCA0EB0900404502D8B8F13D
:1059E000000FE9D1042385F841306B6C43F00103CB
:1059F0006B64012000E00020BDE8F88378B110B5A9
:105A000004460268136823F00103136005F082FE68
:105A10000020606484F8410084F8400010BD01203B
:105A200070472DE9F04182B004460F461646FCF758
:105A30000FFC94F840C05FFA8CFCBCF1010F3CD025
:105A40000546012384F8403094F841C05FFA8CFC8D
:105A50009C4508D04FF00208002384F840304046AF
:105A600002B0BDE8F08100226264022384F8413074
:105A70000096034620212046FFF796FF8046002827
:105A8000EAD1002239462046FFF7A4FE7B6A1BB10B
:105A9000012384F84130DFE700962B4601220221E2
:105AA0002046FFF781FF80460028D5D123680222D7
:105AB000DA60012384F84130CEE74FF00208CEE7E8
:105AC0002DE9F04182B00446884615461F46FCF792
:105AD000BFFB94F840C05FFA8CFCBCF1010F48D0CA
:105AE0000646012384F8403094F841C05FFA8CFCEC
:105AF0009C4506D00220002384F8403002B0BDE867
:105B0000F08100226264422384F84130009703460A
